{"abi":[{"type":"constructor","inputs":[],"stateMutability":"nonpayable"},{"type":"function","name":"DEFAULT_ADMIN_ROLE","inputs":[],"outputs":[{"name":"","type":"bytes32","internalType":"bytes32"}],"stateMutability":"view"},{"type":"function","name":"SET_REFERRER_ROLE","inputs":[],"outputs":[{"name":"","type":"bytes32","internalType":"bytes32"}],"stateMutability":"view"},{"type":"function","name":"getRoleAdmin","inputs":[{"name":"role","type":"bytes32","internalType":"bytes32"}],"outputs":[{"name":"","type":"bytes32","internalType":"bytes32"}],"stateMutability":"view"},{"type":"function","name":"getRoleMember","inputs":[{"name":"role","type":"bytes32","internalType":"bytes32"},{"name":"index","type":"uint256","internalType":"uint256"}],"outputs":[{"name":"","type":"address","internalType":"address"}],"stateMutability":"view"},{"type":"function","name":"getRoleMemberCount","inputs":[{"name":"role","type":"bytes32","internalType":"bytes32"}],"outputs":[{"name":"","type":"uint256","internalType":"uint256"}],"stateMutability":"view"},{"type":"function","name":"grantRole","inputs":[{"name":"role","type":"bytes32","internalType":"bytes32"},{"name":"account","type":"address","internalType":"address"}],"outputs":[],"stateMutability":"nonpayable"},{"type":"function","name":"hasReferrer","inputs":[{"name":"name","type":"string","internalType":"string"}],"outputs":[{"name":"","type":"bool","internalType":"bool"}],"stateMutability":"view"},{"type":"function","name":"hasRole","inputs":[{"name":"role","type":"bytes32","internalType":"bytes32"},{"name":"account","type":"address","internalType":"address"}],"outputs":[{"name":"","type":"bool","internalType":"bool"}],"stateMutability":"view"},{"type":"function","name":"maybeGetReferrer","inputs":[{"name":"name","type":"string","internalType":"string"}],"outputs":[{"name":"data","type":"tuple","internalType":"struct ReferralTracker.RefData","components":[{"name":"referrer","type":"string","internalType":"string"},{"name":"timestamp","type":"uint256","internalType":"uint256"}]},{"name":"exists","type":"bool","internalType":"bool"}],"stateMutability":"view"},{"type":"function","name":"overwriteReferrer","inputs":[{"name":"name","type":"string","internalType":"string"},{"name":"referrer","type":"string","internalType":"string"},{"name":"ts","type":"uint256","internalType":"uint256"}],"outputs":[],"stateMutability":"nonpayable"},{"type":"function","name":"refDataOf","inputs":[{"name":"","type":"string","internalType":"string"}],"outputs":[{"name":"referrer","type":"string","internalType":"string"},{"name":"timestamp","type":"uint256","internalType":"uint256"}],"stateMutability":"view"},{"type":"function","name":"renounceRole","inputs":[{"name":"role","type":"bytes32","internalType":"bytes32"},{"name":"account","type":"address","internalType":"address"}],"outputs":[],"stateMutability":"nonpayable"},{"type":"function","name":"revokeRole","inputs":[{"name":"role","type":"bytes32","internalType":"bytes32"},{"name":"account","type":"address","internalType":"address"}],"outputs":[],"stateMutability":"nonpayable"},{"type":"function","name":"supportsInterface","inputs":[{"name":"interfaceId","type":"bytes4","internalType":"bytes4"}],"outputs":[{"name":"","type":"bool","internalType":"bool"}],"stateMutability":"view"},{"type":"function","name":"trySetReferrer","inputs":[{"name":"name","type":"string","internalType":"string"},{"name":"referrer","type":"string","internalType":"string"}],"outputs":[{"name":"","type":"bool","internalType":"bool"}],"stateMutability":"nonpayable"},{"type":"event","name":"ReferrerUpdated","inputs":[{"name":"name","type":"string","indexed":false,"internalType":"string"},{"name":"referrer","type":"string","indexed":false,"internalType":"string"},{"name":"timestamp","type":"uint256","indexed":false,"internalType":"uint256"}],"anonymous":false},{"type":"event","name":"RoleAdminChanged","inputs":[{"name":"role","type":"bytes32","indexed":true,"internalType":"bytes32"},{"name":"previousAdminRole","type":"bytes32","indexed":true,"internalType":"bytes32"},{"name":"newAdminRole","type":"bytes32","indexed":true,"internalType":"bytes32"}],"anonymous":false},{"type":"event","name":"RoleGranted","inputs":[{"name":"role","type":"bytes32","indexed":true,"internalType":"bytes32"},{"name":"account","type":"address","indexed":true,"internalType":"address"},{"name":"sender","type":"address","indexed":true,"internalType":"address"}],"anonymous":false},{"type":"event","name":"RoleRevoked","inputs":[{"name":"role","type":"bytes32","indexed":true,"internalType":"bytes32"},{"name":"account","type":"address","indexed":true,"internalType":"address"},{"name":"sender","type":"address","indexed":true,"internalType":"address"}],"anonymous":false}],"bytecode":{"object":"0x608060405234801561001057600080fd5b5061001c600033610021565b610154565b61002b8282610048565b600082815260016020526040902061004390826100e7565b505050565b6000828152602081815260408083206001600160a01b038516845290915290205460ff166100e3576000828152602081815260408083206001600160a01b03851684529091529020805460ff191660011790556100a23390565b6001600160a01b0316816001600160a01b0316837f2f8788117e7eff1d82e926ec794901d17c78024a50270940304540a733656f0d60405160405180910390a45b5050565b60006100fc836001600160a01b038416610105565b90505b92915050565b600081815260018301602052604081205461014c575081546001818101845560008481526020808220909301849055845484825282860190935260409020919091556100ff565b5060006100ff565b61149a806101636000396000f3fe608060405234801561001057600080fd5b50600436106100f55760003560e01c80639010d07c11610097578063ca15c87311610066578063ca15c87314610261578063cf722ff614610274578063d547741f14610287578063e29f99331461029a57600080fd5b80639010d07c146101d057806391d14854146101fb5780639edb9cce14610232578063a217fddf1461025957600080fd5b80632f2ff15d116100d35780632f2ff15d1461016657806336568abe1461017b5780637c33aa801461018e57806389467182146101af57600080fd5b806301ffc9a7146100fa57806309b7129014610122578063248a9ca314610135575b600080fd5b61010d610108366004610df1565b6102ad565b60405190151581526020015b60405180910390f35b61010d610130366004610e64565b6102f1565b610158610143366004610ed5565b60009081526020819052604090206001015490565b604051908152602001610119565b610179610174366004610eee565b61040b565b005b610179610189366004610eee565b610435565b6101a161019c366004610f2a565b6104c1565b604051610119929190610fbc565b6101c26101bd366004611009565b6105b2565b6040516101199291906110c2565b6101e36101de3660046110e4565b610661565b6040516001600160a01b039091168152602001610119565b61010d610209366004610eee565b6000918252602082815260408084206001600160a01b0393909316845291905290205460ff1690565b6101587f6c44d8849584269702d50732ac113864a17da07388e0af8f9e1074b954fdfa9f81565b610158600081565b61015861026f366004610ed5565b610680565b610179610282366004611106565b610697565b610179610295366004610eee565b610767565b61010d6102a8366004610f2a565b61078c565b60006001600160e01b031982167f5a05180f0000000000000000000000000000000000000000000000000000000014806102eb57506102eb826107bc565b92915050565b60007f6c44d8849584269702d50732ac113864a17da07388e0af8f9e1074b954fdfa9f61031d81610823565b8261036f5760405162461bcd60e51b815260206004820152601960248201527f63616e6e6f742073657420656d7074792072656665727265720000000000000060448201526064015b60405180910390fd5b60006002878760405161038392919061117f565b908152602001604051809103902090506000816001015411156103aa576000925050610402565b426001820155806103bc858783611217565b507fcafe90ac22a681819c193ac44e58263a91d814d7cbd98d73a584d6803dbb954787878787426040516103f4959493929190611300565b60405180910390a160019250505b50949350505050565b60008281526020819052604090206001015461042681610823565b6104308383610830565b505050565b6001600160a01b03811633146104b35760405162461bcd60e51b815260206004820152602f60248201527f416363657373436f6e74726f6c3a2063616e206f6e6c792072656e6f756e636560448201527f20726f6c657320666f722073656c6600000000000000000000000000000000006064820152608401610366565b6104bd8282610852565b5050565b6040805180820190915260608152600060208201526000600284846040516104ea92919061117f565b90815260200160405180910390206040518060400160405290816000820180546105139061118f565b80601f016020809104026020016040519081016040528092919081815260200182805461053f9061118f565b801561058c5780601f106105615761010080835404028352916020019161058c565b820191906000526020600020905b81548152906001019060200180831161056f57829003601f168201915b505050505081526020016001820154815250509150600082602001511190509250929050565b80516020818301810180516002825292820191909301209152805481906105d89061118f565b80601f01602080910402602001604051908101604052809291908181526020018280546106049061118f565b80156106515780601f1061062657610100808354040283529160200191610651565b820191906000526020600020905b81548152906001019060200180831161063457829003601f168201915b5050505050908060010154905082565b60008281526001602052604081206106799083610874565b9392505050565b60008181526001602052604081206102eb90610880565b60006106a281610823565b60008390036106e757600286866040516106bd92919061117f565b90815260405190819003602001902060006106d88282610da3565b60018201600090555050610720565b6000600287876040516106fb92919061117f565b908152604051908190036020019020905080610718858783611217565b506001018290555b7fcafe90ac22a681819c193ac44e58263a91d814d7cbd98d73a584d6803dbb95478686868686604051610757959493929190611300565b60405180910390a1505050505050565b60008281526020819052604090206001015461078281610823565b6104308383610852565b600080600284846040516107a192919061117f565b90815260200160405180910390206001015411905092915050565b60006001600160e01b031982167f7965db0b0000000000000000000000000000000000000000000000000000000014806102eb57507f01ffc9a7000000000000000000000000000000000000000000000000000000006001600160e01b03198316146102eb565b61082d813361088a565b50565b61083a82826108fd565b6000828152600160205260409020610430908261099b565b61085c82826109b0565b60008281526001602052604090206104309082610a2f565b60006106798383610a44565b60006102eb825490565b6000828152602081815260408083206001600160a01b038516845290915290205460ff166104bd576108bb81610a6e565b6108c6836020610a80565b6040516020016108d792919061133a565b60408051601f198184030181529082905262461bcd60e51b8252610366916004016113bb565b6000828152602081815260408083206001600160a01b038516845290915290205460ff166104bd576000828152602081815260408083206001600160a01b03851684529091529020805460ff191660011790556109573390565b6001600160a01b0316816001600160a01b0316837f2f8788117e7eff1d82e926ec794901d17c78024a50270940304540a733656f0d60405160405180910390a45050565b6000610679836001600160a01b038416610c61565b6000828152602081815260408083206001600160a01b038516845290915290205460ff16156104bd576000828152602081815260408083206001600160a01b0385168085529252808320805460ff1916905551339285917ff6391f5c32d9c69d2a47ea670b442974b53935d1edc7fd64eb21e047a839171b9190a45050565b6000610679836001600160a01b038416610cb0565b6000826000018281548110610a5b57610a5b6113ce565b9060005260206000200154905092915050565b60606102eb6001600160a01b03831660145b60606000610a8f8360026113fa565b610a9a906002611411565b67ffffffffffffffff811115610ab257610ab2610ff3565b6040519080825280601f01601f191660200182016040528015610adc576020820181803683370190505b5090507f300000000000000000000000000000000000000000000000000000000000000081600081518110610b1357610b136113ce565b60200101906001600160f81b031916908160001a9053507f780000000000000000000000000000000000000000000000000000000000000081600181518110610b5e57610b5e6113ce565b60200101906001600160f81b031916908160001a9053506000610b828460026113fa565b610b8d906001611411565b90505b6001811115610c12577f303132333435363738396162636465660000000000000000000000000000000085600f1660108110610bce57610bce6113ce565b1a60f81b828281518110610be457610be46113ce565b60200101906001600160f81b031916908160001a90535060049490941c93610c0b81611424565b9050610b90565b5083156106795760405162461bcd60e51b815260206004820181905260248201527f537472696e67733a20686578206c656e67746820696e73756666696369656e746044820152606401610366565b6000818152600183016020526040812054610ca8575081546001818101845560008481526020808220909301849055845484825282860190935260409020919091556102eb565b5060006102eb565b60008181526001830160205260408120548015610d99576000610cd460018361143b565b8554909150600090610ce89060019061143b565b9050818114610d4d576000866000018281548110610d0857610d086113ce565b9060005260206000200154905080876000018481548110610d2b57610d2b6113ce565b6000918252602080832090910192909255918252600188019052604090208390555b8554869080610d5e57610d5e61144e565b6001900381819060005260206000200160009055905585600101600086815260200190815260200160002060009055600193505050506102eb565b60009150506102eb565b508054610daf9061118f565b6000825580601f10610dbf575050565b601f01602090049060005260206000209081019061082d91905b80821115610ded5760008155600101610dd9565b5090565b600060208284031215610e0357600080fd5b81356001600160e01b03198116811461067957600080fd5b60008083601f840112610e2d57600080fd5b50813567ffffffffffffffff811115610e4557600080fd5b602083019150836020828501011115610e5d57600080fd5b9250929050565b60008060008060408587031215610e7a57600080fd5b843567ffffffffffffffff811115610e9157600080fd5b610e9d87828801610e1b565b909550935050602085013567ffffffffffffffff811115610ebd57600080fd5b610ec987828801610e1b565b95989497509550505050565b600060208284031215610ee757600080fd5b5035919050565b60008060408385031215610f0157600080fd5b8235915060208301356001600160a01b0381168114610f1f57600080fd5b809150509250929050565b60008060208385031215610f3d57600080fd5b823567ffffffffffffffff811115610f5457600080fd5b610f6085828601610e1b565b90969095509350505050565b60005b83811015610f87578181015183820152602001610f6f565b50506000910152565b60008151808452610fa8816020860160208601610f6c565b601f01601f19169290920160200192915050565b6040815260008351604080840152610fd76080840182610f90565b6020958601516060850152931515929094019190915250919050565b634e487b7160e01b600052604160045260246000fd5b60006020828403121561101b57600080fd5b813567ffffffffffffffff81111561103257600080fd5b8201601f8101841361104357600080fd5b803567ffffffffffffffff81111561105d5761105d610ff3565b604051601f8201601f19908116603f0116810167ffffffffffffffff8111828210171561108c5761108c610ff3565b6040528181528282016020018610156110a457600080fd5b81602084016020830137600091810160200191909152949350505050565b6040815260006110d56040830185610f90565b90508260208301529392505050565b600080604083850312156110f757600080fd5b50508035926020909101359150565b60008060008060006060868803121561111e57600080fd5b853567ffffffffffffffff81111561113557600080fd5b61114188828901610e1b565b909650945050602086013567ffffffffffffffff81111561116157600080fd5b61116d88828901610e1b565b96999598509660400135949350505050565b8183823760009101908152919050565b600181811c908216806111a357607f821691505b6020821081036111c357634e487b7160e01b600052602260045260246000fd5b50919050565b601f82111561043057806000526020600020601f840160051c810160208510156111f05750805b601f840160051c820191505b8181101561121057600081556001016111fc565b5050505050565b67ffffffffffffffff83111561122f5761122f610ff3565b6112438361123d835461118f565b836111c9565b6000601f841160018114611277576000851561125f5750838201355b600019600387901b1c1916600186901b178355611210565b600083815260209020601f19861690835b828110156112a85786850135825560209485019460019092019101611288565b50868210156112c55760001960f88860031b161c19848701351681555b505060018560011b0183555050505050565b81835281816020850137506000828201602090810191909152601f909101601f19169091010190565b6060815260006113146060830187896112d7565b82810360208401526113278186886112d7565b9150508260408301529695505050505050565b7f416363657373436f6e74726f6c3a206163636f756e7420000000000000000000815260008351611372816017850160208801610f6c565b7f206973206d697373696e6720726f6c652000000000000000000000000000000060179184019182015283516113af816028840160208801610f6c565b01602801949350505050565b6020815260006106796020830184610f90565b634e487b7160e01b600052603260045260246000fd5b634e487b7160e01b600052601160045260246000fd5b80820281158282048414176102eb576102eb6113e4565b808201808211156102eb576102eb6113e4565b600081611433576114336113e4565b506000190190565b818103818111156102eb576102eb6113e4565b634e487b7160e01b600052603160045260246000fdfea2646970667358221220d7c5f28ab33a095b89a90058f5317c4db4fe76bb92f2242cef83ae53566261ee64736f6c634300081c0033","linkReferences":{}},"methodIdentifiers":{"DEFAULT_ADMIN_ROLE()":"a217fddf","SET_REFERRER_ROLE()":"9edb9cce","getRoleAdmin(bytes32)":"248a9ca3","getRoleMember(bytes32,uint256)":"9010d07c","getRoleMemberCount(bytes32)":"ca15c873","grantRole(bytes32,address)":"2f2ff15d","hasReferrer(string)":"e29f9933","hasRole(bytes32,address)":"91d14854","maybeGetReferrer(string)":"7c33aa80","overwriteReferrer(string,string,uint256)":"cf722ff6","refDataOf(string)":"89467182","renounceRole(bytes32,address)":"36568abe","revokeRole(bytes32,address)":"d547741f","supportsInterface(bytes4)":"01ffc9a7","trySetReferrer(string,string)":"09b71290"},"id":86}